{
  "_format": "hh3-artifact-1",
  "contractName": "AnchorRegistry",
  "sourceName": "contracts/AnchorRegistry.sol",
  "abi": [
    {
      "inputs": [],
      "stateMutability": "nonpayable",
      "type": "constructor"
    },
    {
      "anonymous": false,
      "inputs": [
        {
          "indexed": true,
          "internalType": "string",
          "name": "studentDid",
          "type": "string"
        },
        {
          "indexed": false,
          "internalType": "string",
          "name": "documentHash",
          "type": "string"
        },
        {
          "indexed": false,
          "internalType": "uint256",
          "name": "timestamp",
          "type": "uint256"
        }
      ],
      "name": "RecordAnchored",
      "type": "event"
    },
    {
      "inputs": [
        {
          "internalType": "string",
          "name": "_studentDid",
          "type": "string"
        },
        {
          "internalType": "string",
          "name": "_documentHash",
          "type": "string"
        }
      ],
      "name": "anchorRecord",
      "outputs": [],
      "stateMutability": "nonpayable",
      "type": "function"
    },
    {
      "inputs": [
        {
          "internalType": "string",
          "name": "",
          "type": "string"
        }
      ],
      "name": "issuers",
      "outputs": [
        {
          "internalType": "string",
          "name": "",
          "type": "string"
        }
      ],
      "stateMutability": "view",
      "type": "function"
    },
    {
      "inputs": [],
      "name": "owner",
      "outputs": [
        {
          "internalType": "address",
          "name": "",
          "type": "address"
        }
      ],
      "stateMutability": "view",
      "type": "function"
    },
    {
      "inputs": [
        {
          "internalType": "string",
          "name": "_documentHash",
          "type": "string"
        }
      ],
      "name": "verifyRecord",
      "outputs": [
        {
          "internalType": "bool",
          "name": "valid",
          "type": "bool"
        },
        {
          "internalType": "string",
          "name": "issuerDid",
          "type": "string"
        }
      ],
      "stateMutability": "view",
      "type": "function"
    }
  ],
  "bytecode": "0x6080604052348015600e575f5ffd5b50600280546001600160a01b031916331790556107618061002e5f395ff3fe608060405234801561000f575f5ffd5b506004361061004a575f3560e01c80631816de991461004e578063883080af146100775780638da5cb5b1461008c578063c40e5824146100b7575b5f5ffd5b61006161005c3660046104b5565b6100d8565b60405161006e919061051d565b60405180910390f35b61008a610085366004610536565b61017b565b005b60025461009f906001600160a01b031681565b6040516001600160a01b03909116815260200161006e565b6100ca6100c53660046104b5565b610341565b60405161006e92919061059b565b8051602081830181018051600182529282019190930120915280546100fc906105b5565b80601f0160208091040260200160405190810160405280929190818152602001828054610128906105b5565b80156101735780601f1061014a57610100808354040283529160200191610173565b820191905f5260205f20905b81548152906001019060200180831161015657829003601f168201915b505050505081565b6002546001600160a01b031633146101e95760405162461bcd60e51b815260206004820152602660248201527f4f6e6c792074686520556e69766572736974792063616e20616e63686f72207260448201526565636f72647360d01b60648201526084015b60405180910390fd5b5f816040516101f891906105ed565b9081526040519081900360200190205460ff16156102585760405162461bcd60e51b815260206004820152601760248201527f5265636f726420616c726561647920616e63686f72656400000000000000000060448201526064016101e0565b60015f8260405161026991906105ed565b90815260200160405180910390205f6101000a81548160ff0219169083151502179055506040518060400160405280601b81526020017f6469643a7a6b6261723a756e69766572736974792d6e6f64652d3100000000008152506001826040516102d391906105ed565b908152602001604051809103902090816102ed919061064f565b50816040516102fc91906105ed565b60405180910390207fe80f07f2d38bb1e680bc7eca65182adf7a64b84146ec1cb950cbc4c60185072c824260405161033592919061070a565b60405180910390a25050565b5f60605f8360405161035391906105ed565b9081526040519081900360200181205460ff16906001906103759086906105ed565b908152602001604051809103902080805461038f906105b5565b80601f01602080910402602001604051908101604052809291908181526020018280546103bb906105b5565b80156104065780601f106103dd57610100808354040283529160200191610406565b820191905f5260205f20905b8154815290600101906020018083116103e957829003601f168201915b5050505050905091509150915091565b634e487b7160e01b5f52604160045260245ffd5b5f82601f830112610439575f5ffd5b813567ffffffffffffffff81111561045357610453610416565b604051601f8201601f19908116603f0116810167ffffffffffffffff8111828210171561048257610482610416565b604052818152838201602001851015610499575f5ffd5b816020850160208301375f918101602001919091529392505050565b5f602082840312156104c5575f5ffd5b813567ffffffffffffffff8111156104db575f5ffd5b6104e78482850161042a565b949350505050565b5f81518084528060208401602086015e5f602082860101526020601f19601f83011685010191505092915050565b602081525f61052f60208301846104ef565b9392505050565b5f5f60408385031215610547575f5ffd5b823567ffffffffffffffff81111561055d575f5ffd5b6105698582860161042a565b925050602083013567ffffffffffffffff811115610585575f5ffd5b6105918582860161042a565b9150509250929050565b8215158152604060208201525f6104e760408301846104ef565b600181811c908216806105c957607f821691505b6020821081036105e757634e487b7160e01b5f52602260045260245ffd5b50919050565b5f82518060208501845e5f920191825250919050565b601f82111561064a57805f5260205f20601f840160051c810160208510156106285750805b601f840160051c820191505b81811015610647575f8155600101610634565b50505b505050565b815167ffffffffffffffff81111561066957610669610416565b61067d8161067784546105b5565b84610603565b6020601f8211600181146106af575f83156106985750848201515b5f19600385901b1c1916600184901b178455610647565b5f84815260208120601f198516915b828110156106de57878501518255602094850194600190920191016106be565b50848210156106fb57868401515f19600387901b60f8161c191681555b50505050600190811b01905550565b604081525f61071c60408301856104ef565b9050826020830152939250505056fea2646970667358221220e18da699c47f55d2d896f34258318121ff7ea6b8a646cd5324105f0d9daa21b964736f6c634300081c0033",
  "linkReferences": {},
  "deployedLinkReferences": {},
  "immutableReferences": {},
  "inputSourceName": "project/contracts/AnchorRegistry.sol",
  "buildInfoId": "solc-0_8_28-4afc0f8c32fc8b12ef65dde1f4fc85f3f7cc9810"
}